{
    "contractName": "Exchange",
    "abi": [
        {
            "inputs": [
                {
                    "internalType": "address",
                    "name": "_feeAccount",
                    "type": "address"
                },
                {
                    "internalType": "uint256",
                    "name": "_feePercent",
                    "type": "uint256"
                }
            ],
            "payable": false,
            "stateMutability": "nonpayable",
            "type": "constructor"
        },
        {
            "anonymous": false,
            "inputs": [
                {
                    "indexed": false,
                    "internalType": "address",
                    "name": "token",
                    "type": "address"
                },
                {
                    "indexed": false,
                    "internalType": "address",
                    "name": "user",
                    "type": "address"
                },
                {
                    "indexed": false,
                    "internalType": "uint256",
                    "name": "amount",
                    "type": "uint256"
                },
                {
                    "indexed": false,
                    "internalType": "uint256",
                    "name": "balance",
                    "type": "uint256"
                }
            ],
            "name": "Deposit",
            "type": "event"
        },
        {
            "anonymous": false,
            "inputs": [
                {
                    "indexed": false,
                    "internalType": "uint256",
                    "name": "id",
                    "type": "uint256"
                },
                {
                    "indexed": false,
                    "internalType": "address",
                    "name": "user",
                    "type": "address"
                },
                {
                    "indexed": false,
                    "internalType": "address",
                    "name": "tokenGet",
                    "type": "address"
                },
                {
                    "indexed": false,
                    "internalType": "uint256",
                    "name": "amountGet",
                    "type": "uint256"
                },
                {
                    "indexed": false,
                    "internalType": "address",
                    "name": "tokenGive",
                    "type": "address"
                },
                {
                    "indexed": false,
                    "internalType": "uint256",
                    "name": "amountGive",
                    "type": "uint256"
                },
                {
                    "indexed": false,
                    "internalType": "uint256",
                    "name": "timestamp",
                    "type": "uint256"
                }
            ],
            "name": "Order",
            "type": "event"
        },
        {
            "anonymous": false,
            "inputs": [
                {
                    "indexed": false,
                    "internalType": "address",
                    "name": "token",
                    "type": "address"
                },
                {
                    "indexed": false,
                    "internalType": "address",
                    "name": "user",
                    "type": "address"
                },
                {
                    "indexed": false,
                    "internalType": "uint256",
                    "name": "amount",
                    "type": "uint256"
                },
                {
                    "indexed": false,
                    "internalType": "uint256",
                    "name": "balance",
                    "type": "uint256"
                }
            ],
            "name": "Withdraw",
            "type": "event"
        },
        {
            "payable": false,
            "stateMutability": "nonpayable",
            "type": "fallback"
        },
        {
            "constant": true,
            "inputs": [
                {
                    "internalType": "address",
                    "name": "_token",
                    "type": "address"
                },
                {
                    "internalType": "address",
                    "name": "_user",
                    "type": "address"
                }
            ],
            "name": "balanceOf",
            "outputs": [
                {
                    "internalType": "uint256",
                    "name": "",
                    "type": "uint256"
                }
            ],
            "payable": false,
            "stateMutability": "view",
            "type": "function"
        },
        {
            "constant": false,
            "inputs": [],
            "name": "depositEther",
            "outputs": [],
            "payable": true,
            "stateMutability": "payable",
            "type": "function"
        },
        {
            "constant": false,
            "inputs": [
                {
                    "internalType": "address",
                    "name": "_token",
                    "type": "address"
                },
                {
                    "internalType": "uint256",
                    "name": "_amount",
                    "type": "uint256"
                }
            ],
            "name": "depositToken",
            "outputs": [],
            "payable": false,
            "stateMutability": "nonpayable",
            "type": "function"
        },
        {
            "constant": true,
            "inputs": [],
            "name": "feeAccount",
            "outputs": [
                {
                    "internalType": "address",
                    "name": "",
                    "type": "address"
                }
            ],
            "payable": false,
            "stateMutability": "view",
            "type": "function"
        },
        {
            "constant": true,
            "inputs": [],
            "name": "feePercent",
            "outputs": [
                {
                    "internalType": "uint256",
                    "name": "",
                    "type": "uint256"
                }
            ],
            "payable": false,
            "stateMutability": "view",
            "type": "function"
        },
        {
            "constant": false,
            "inputs": [
                {
                    "internalType": "address",
                    "name": "_tokenGet",
                    "type": "address"
                },
                {
                    "internalType": "uint256",
                    "name": "_amountGet",
                    "type": "uint256"
                },
                {
                    "internalType": "address",
                    "name": "_tokenGive",
                    "type": "address"
                },
                {
                    "internalType": "uint256",
                    "name": "_amountGive",
                    "type": "uint256"
                }
            ],
            "name": "makeOrder",
            "outputs": [],
            "payable": false,
            "stateMutability": "nonpayable",
            "type": "function"
        },
        {
            "constant": true,
            "inputs": [],
            "name": "orderCount",
            "outputs": [
                {
                    "internalType": "uint256",
                    "name": "",
                    "type": "uint256"
                }
            ],
            "payable": false,
            "stateMutability": "view",
            "type": "function"
        },
        {
            "constant": true,
            "inputs": [
                {
                    "internalType": "uint256",
                    "name": "",
                    "type": "uint256"
                }
            ],
            "name": "orders",
            "outputs": [
                {
                    "internalType": "uint256",
                    "name": "id",
                    "type": "uint256"
                },
                {
                    "internalType": "address",
                    "name": "user",
                    "type": "address"
                },
                {
                    "internalType": "address",
                    "name": "tokenGet",
                    "type": "address"
                },
                {
                    "internalType": "uint256",
                    "name": "amountGet",
                    "type": "uint256"
                },
                {
                    "internalType": "address",
                    "name": "tokenGive",
                    "type": "address"
                },
                {
                    "internalType": "uint256",
                    "name": "amountGive",
                    "type": "uint256"
                },
                {
                    "internalType": "uint256",
                    "name": "timestamp",
                    "type": "uint256"
                }
            ],
            "payable": false,
            "stateMutability": "view",
            "type": "function"
        },
        {
            "constant": true,
            "inputs": [
                {
                    "internalType": "address",
                    "name": "",
                    "type": "address"
                },
                {
                    "internalType": "address",
                    "name": "",
                    "type": "address"
                }
            ],
            "name": "tokens",
            "outputs": [
                {
                    "internalType": "uint256",
                    "name": "",
                    "type": "uint256"
                }
            ],
            "payable": false,
            "stateMutability": "view",
            "type": "function"
        },
        {
            "constant": false,
            "inputs": [
                {
                    "internalType": "uint256",
                    "name": "_amount",
                    "type": "uint256"
                }
            ],
            "name": "withdrawEther",
            "outputs": [],
            "payable": false,
            "stateMutability": "nonpayable",
            "type": "function"
        },
        {
            "constant": false,
            "inputs": [
                {
                    "internalType": "address",
                    "name": "_token",
                    "type": "address"
                },
                {
                    "internalType": "uint256",
                    "name": "_amount",
                    "type": "uint256"
                }
            ],
            "name": "withdrawToken",
            "outputs": [],
            "payable": false,
            "stateMutability": "nonpayable",
            "type": "function"
        }
    ],
    "bytecode": "608060405234801561001057600080fd5b506040516109ae3803806109ae8339818101604052604081101561003357600080fd5b508051602090910151600080546001600160a01b0319166001600160a01b0390931692909217825560015561094090819061006e90396000f3fe60806040526004361061009c5760003560e01c80637fd6f15c116100645780637fd6f15c146101a657806398ea5fca146101bb5780639a5c90aa146101c35780639e281a981461020a578063a85c38ef14610243578063f7888aec146102b55761009c565b80632453ffa8146100ae578063338b5dea146100d55780633bed33ce14610110578063508493bc1461013a57806365e17c9d14610175575b3480156100a857600080fd5b50600080fd5b3480156100ba57600080fd5b506100c36102f0565b60408051918252519081900360200190f35b3480156100e157600080fd5b5061010e600480360360408110156100f857600080fd5b506001600160a01b0381351690602001356102f6565b005b34801561011c57600080fd5b5061010e6004803603602081101561013357600080fd5b503561043a565b34801561014657600080fd5b506100c36004803603604081101561015d57600080fd5b506001600160a01b0381358116916020013516610542565b34801561018157600080fd5b5061018a61055f565b604080516001600160a01b039092168252519081900360200190f35b3480156101b257600080fd5b506100c361056e565b61010e610574565b3480156101cf57600080fd5b5061010e600480360360808110156101e657600080fd5b506001600160a01b0381358116916020810135916040820135169060600135610609565b34801561021657600080fd5b5061010e6004803603604081101561022d57600080fd5b506001600160a01b0381351690602001356106d8565b34801561024f57600080fd5b5061026d6004803603602081101561026657600080fd5b5035610846565b604080519788526001600160a01b0396871660208901529486168786015260608701939093529316608085015260a084019290925260c0830191909152519081900360e00190f35b3480156102c157600080fd5b506100c3600480360360408110156102d857600080fd5b506001600160a01b0381358116916020013516610892565b60045481565b6001600160a01b03821661030957600080fd5b604080516323b872dd60e01b81523360048201523060248201526044810183905290516001600160a01b038416916323b872dd9160648083019260209291908290030181600087803b15801561035e57600080fd5b505af1158015610372573d6000803e3d6000fd5b505050506040513d602081101561038857600080fd5b505161039357600080fd5b6001600160a01b03821660009081526002602090815260408083203384529091529020546103c7908263ffffffff6108bd16565b6001600160a01b03831660008181526002602090815260408083203380855290835292819020859055805193845290830191909152818101849052606082019290925290517fdcbc1c05240f31ff3ad067ef1ee35ce4997762752e3a095284754544f4c709d79181900360800190a15050565b3360009081526000805160206108ec833981519152602052604090205481111561046357600080fd5b3360009081526000805160206108ec8339815191526020526040902054610490908263ffffffff6108d616565b3360008181526000805160206108ec8339815191526020526040808220939093559151909183156108fc02918491818181858888f193505050501580156104db573d6000803e3d6000fd5b503360008181526000805160206108ec8339815191526020908152604080832054815193845291830193909352818301849052606082015290517ff341246adaac6f497bc2a656f546ab9e182111d630394f0c57c710a59a2cb5679181900360800190a150565b600260209081526000928352604080842090915290825290205481565b6000546001600160a01b031681565b60015481565b3360009081526000805160206108ec83398151915260205260409020546105a1903463ffffffff6108bd16565b3360008181526000805160206108ec8339815191526020908152604080832085905580519283529082019290925234818301526060810192909252517fdcbc1c05240f31ff3ad067ef1ee35ce4997762752e3a095284754544f4c709d79181900360800190a1565b60045461061d90600163ffffffff6108bd16565b60048181556040805160e0810182528381523360208083019182526001600160a01b03998a1683850190815260608401998a52978a166080840190815260a084019788524260c08501908152600097885260039283905294909620925183559051600183018054918b166001600160a01b03199283161790559651600283018054918b169189169190911790559651968101969096559151908501805491909616931692909217909355915160058201559051600690910155565b6001600160a01b0382166106eb57600080fd5b6001600160a01b038216600090815260026020908152604080832033845290915290205481111561071b57600080fd5b6040805163a9059cbb60e01b81523360048201526024810183905290516001600160a01b0384169163a9059cbb9160448083019260209291908290030181600087803b15801561076a57600080fd5b505af115801561077e573d6000803e3d6000fd5b505050506040513d602081101561079457600080fd5b505161079f57600080fd5b6001600160a01b03821660009081526002602090815260408083203384529091529020546107d3908263ffffffff6108d616565b6001600160a01b03831660008181526002602090815260408083203380855290835292819020859055805193845290830191909152818101849052606082019290925290517ff341246adaac6f497bc2a656f546ab9e182111d630394f0c57c710a59a2cb5679181900360800190a15050565b6003602081905260009182526040909120805460018201546002830154938301546004840154600585015460069095015493956001600160a01b03938416959084169492939091169187565b6001600160a01b03918216600090815260026020908152604080832093909416825291909152205490565b6000828201838110156108cf57600080fd5b9392505050565b6000828211156108e557600080fd5b5090039056feac33ff75c19e70fe83507db0d683fd3465c996598dc972688b7ace676c89077ba265627a7a723158206de48425db6b04f42b88c403525ddc59ea4423aa3d36ebf92f84f609d18a924e64736f6c63430005100032",
    "sourcePath": "/Users/flaviodiberardino/Desktop/BlockChain/blockchain-developer-bootcamp/src/contracts/Exchange.sol",
    "compiler": {
        "name": "solc",
        "version": "0.5.16+commit.9c3226ce"
    },
    "functionHashes": {
        "balanceOf(address,address)": "f7888aec",
        "depositEther()": "98ea5fca",
        "depositToken(address,uint256)": "338b5dea",
        "feeAccount()": "65e17c9d",
        "feePercent()": "7fd6f15c",
        "makeOrder(address,uint256,address,uint256)": "9a5c90aa",
        "orderCount()": "2453ffa8",
        "orders(uint256)": "a85c38ef",
        "tokens(address,address)": "508493bc",
        "withdrawEther(uint256)": "3bed33ce",
        "withdrawToken(address,uint256)": "9e281a98"
    },
    "gasEstimates": {
        "creation": {
            "codeDepositCost": "473600",
            "executionCost": "infinite",
            "totalCost": "infinite"
        },
        "external": {
            "": "215",
            "balanceOf(address,address)": "1360",
            "depositEther()": "infinite",
            "depositToken(address,uint256)": "infinite",
            "feeAccount()": "1126",
            "feePercent()": "998",
            "makeOrder(address,uint256,address,uint256)": "infinite",
            "orderCount()": "999",
            "orders(uint256)": "6282",
            "tokens(address,address)": "1284",
            "withdrawEther(uint256)": "infinite",
            "withdrawToken(address,uint256)": "infinite"
        }
    }
}